:1000000048C07AC05FC05EC05DC05CC05BC05AC003
:1000100059C058C057C056C055C054C053C052C034
:1000200051C050C04FC00EC30FC313C315C316C376
:1000300017C318C319C31BC309C31BC32AC321C3D6
:10004000040309042003500068006C0074005F0082
:100050004600610062007300630061006E004200B0
:10006000720064000A03460061006200530012013E
:100070001001FF000008C016DC05000101020001AC
:1000800009021200010100803C0904000000000088
:10009000000011241FBECFEDCDBF10E0A0E6B0E000
:1000A000E8E6F7E002C005900D92A438B107D9F751
:1000B00010E0A4E8B0E001C01D92A63BB107E1F753
:1000C00034D350C39DCFA82FB92F80E090E041E0FA
:1000D00050EA609530E009C02D9182279795879569
:1000E00010F084279527305EC8F36F5FA8F308955A
:1000F000EADF8D939D930895CF93CFB7CF93C395A8
:10010000839BE9F7839B09C0839B07C0839B05C042
:10011000839B03C0839B01C0A1C0DF93C091960065
:10012000DD27C356DF4F839B02C0DF91EBCF2F93B8
:100130000F931F9300B32FEF03FB20F94F933F93CF
:1001400010B34FEF012703FB21F93BE031C04E7F95
:10015000012F10B3216028C0102F4D7F22600000B6
:1001600000B329C04B7F2460012F000010B32BC0C7
:1001700010B3477F28602AC04F7E00B320612CC097
:100180004F7D10B320622FC04F7B00B3206432C07C
:10019000422700B349934FEF0000102713FB20F9CB
:1001A00010B31C70C9F1297F91F2012703FB21F9DB
:1001B00000B3237F89F2315058F1102713FB22F945
:1001C00010B3277E79F2012703FB23F92F7C81F2FC
:1001D00000B3102713FB24F92F7971F200C010B37C
:1001E000012703FB25F92F7359F200C000B3102734
:1001F00013FB26F9223040F200C010B3012703FBA5
:1002000027F9243028F64F77206810B30000F9CF83
:1002100010E41ABF002717C03B503195C31BD040D4
:1002200010E41ABF0881033CE9F00B34D9F02091A7
:1002300094001981110F1213EDCF093641F10D32DF
:1002400011F0013E39F700939B003F914F911F91B0
:100250000F912F91DF91CAB7C6FD51CFCF91CFBF7C
:10026000CF91189520919B00222379F3109199004A
:10027000112311F5343012F1309399002093950039
:10028000109196003BE0311B3093960017C000910F
:10029000990001308CF40AE53091600034FD10C003
:1002A00000936000C9E8D0E00FC02795A8F4515032
:1002B000A9F4220F0000F9CF4AE503C042ED01C0C6
:1002C000432FC4E1D0E032E011B31C60939A11BB1C
:1002D00002B320E41CE05F93012756E002BB2795A0
:1002E00020F4515021F4220FF9CF012756E00000ED
:1002F0003B5A02BBD0F2279528F4515029F4220F23
:100300000000F9CF012756E0279502BB20F4515099
:1003100021F4220FF9CF012756E02991332302BBA4
:1003200021F6037F10919A00110FC651D04002BBF5
:1003300011F01093940010E41ABF086011B3137FFA
:10034000402F437F5F9100C000C002BB11BB42BB86
:100350007CCF1F93CF93DF9380919900835087FDCB
:1003600088C090919600209195002D3209F07FC0B1
:10037000883009F07CC0CCE0D0E0C91BD109C3565D
:10038000DF4F83EC809389008AE5809360001092B0
:1003900084008881807619F0CE01B7D15FC09A8140
:1003A000109292008981882331F41092930022E9FF
:1003B00030E082E04FC0853019F490939A0040C03D
:1003C0008630A9F58B81813019F48EE690E004C067
:1003D000823041F480E890E09093980080939700F9
:1003E00082E121C08330F1F4992341F480E490E06C
:1003F000909398008093970084E015C0913041F469
:1004000084E490E0909398008093970080E20BC082
:10041000923041F484E690E09093980080939700A6
:100420008AE001C080E090E49093840017C0883097
:1004300059F0893019F490939C0002C08A3039F049
:1004400022E930E080E006C02CE930E002C022E979
:1004500030E081E030939800209397009F819923AA
:1004600021F49E81981708F4892F809361001092DF
:1004700099008091600084FF43C0809161008F3FAC
:1004800009F43EC0182F893008F018E0811B8093D2
:1004900061008091890098E8892780938900112361
:1004A00019F180919700909198002091840026FF87
:1004B0000AC0FC01212FAAE8B0E034913D933196A7
:1004C0002150D9F708C0DC01212FEAE8F0E03D9186
:1004D00031932150E1F70196212F2150820F911D78
:1004E00090939800809397008AE890E0612F00DE57
:1004F0001C5F1C3019F08FEF809361001093600037
:1005000084E190B39C7031F48150D9F710929A0035
:1005100010929400DF91CF911F91089585B782606A
:1005200085BF8BB780648BBF08958091B400909194
:10053000B5008A30910511F4C09A08958B30910569
:1005400009F4C09A08958091B4009091B5008A3062
:10055000910511F4C09808958B30910509F4C09865
:1005600008958091B4009091B5008A30910511F4FE
:10057000C29808958B30910509F4C398089580912D
:10058000B4009091B5008A30910511F4C29A089593
:100590008B30910509F4C39A08958091B40090912D
:1005A000B5008A30910519F08B30910509F4C19896
:1005B00087E99AE30197F1F700C000008091B40049
:1005C0009091B5008A30910519F08B30910509F4AE
:1005D000C19A87E99AE30197F1F700C000000895F6
:1005E0000F931F93CF93DF938C01C0E0D0E002C044
:1005F000D4DF2196C017D107DCF3DF91CF911F9193
:100600000F910895899ABD9ABA9AB89AB99ABB9AE5
:10061000B89AB99AC19A88B3836088BB88B3856059
:1006200088BB909A8AE090E09093B5008093B400E4
:100630000895FC01E85CF040ED30F10550F5ED5E09
:10064000FF4F0994919823C0919A21C086E090E0D1
:100650001AC083E090E017C068DF19C074DF17C0CC
:1006600080DF15C08CDF13C082E090E00CC0C5981D
:100670000EC087EB9BE00197F1F700C0000083ED0F
:10068000089587E090E0909363008093620080E09B
:10069000089580E00895181619069CF5809162006F
:1006A0009091630082309105B1F08330910524F47C
:1006B0008130910541F507C08330910539F08730CD
:1006C000910509F50FC0CB01B4DF08958091860034
:1006D0009091870085DF81E090E0909363008093A4
:1006E00062000FC090918700809186008093B400D3
:1006F0009093B50021E030E03093630020936200D6
:10070000089580E0089580E00895FC018181809340
:1007100086001092870081E080938500089581E033
:1007200090918800911180E008956CDFF7DE8B9A3C
:100730008AEFEFE6F7E13197F1F700C00000815052
:10074000C1F78B98789405DE809185008823D9F3D2
:1007500010928500609186007091870081E090E0A2
:080760009ADFF1CFF894FFCFFE
:100768005AFF010048656C6C6F2C20555342202AB3
:100778002A2A2A2A2A2A2A2A2A2A21202A2A2A2AE4
:040788002A2A2A2AC5
:00000001FF
